{
  "_format": "hh-sol-artifact-1",
  "contractName": "ExamPortal",
  "sourceName": "contracts/ExamPortal.sol",
  "abi": [
    {
      "inputs": [],
      "stateMutability": "nonpayable",
      "type": "constructor"
    },
    {
      "anonymous": false,
      "inputs": [
        {
          "indexed": true,
          "internalType": "address",
          "name": "owner",
          "type": "address"
        },
        {
          "indexed": true,
          "internalType": "address",
          "name": "approved",
          "type": "address"
        },
        {
          "indexed": true,
          "internalType": "uint256",
          "name": "tokenId",
          "type": "uint256"
        }
      ],
      "name": "Approval",
      "type": "event"
    },
    {
      "anonymous": false,
      "inputs": [
        {
          "indexed": true,
          "internalType": "address",
          "name": "owner",
          "type": "address"
        },
        {
          "indexed": true,
          "internalType": "address",
          "name": "operator",
          "type": "address"
        },
        {
          "indexed": false,
          "internalType": "bool",
          "name": "approved",
          "type": "bool"
        }
      ],
      "name": "ApprovalForAll",
      "type": "event"
    },
    {
      "anonymous": false,
      "inputs": [
        {
          "indexed": true,
          "internalType": "address",
          "name": "from",
          "type": "address"
        },
        {
          "indexed": true,
          "internalType": "address",
          "name": "to",
          "type": "address"
        },
        {
          "indexed": true,
          "internalType": "uint256",
          "name": "tokenId",
          "type": "uint256"
        }
      ],
      "name": "Transfer",
      "type": "event"
    },
    {
      "inputs": [
        {
          "internalType": "address",
          "name": "to",
          "type": "address"
        },
        {
          "internalType": "uint256",
          "name": "tokenId",
          "type": "uint256"
        }
      ],
      "name": "approve",
      "outputs": [],
      "stateMutability": "nonpayable",
      "type": "function"
    },
    {
      "inputs": [
        {
          "internalType": "address",
          "name": "owner",
          "type": "address"
        }
      ],
      "name": "balanceOf",
      "outputs": [
        {
          "internalType": "uint256",
          "name": "",
          "type": "uint256"
        }
      ],
      "stateMutability": "view",
      "type": "function"
    },
    {
      "inputs": [
        {
          "internalType": "uint256[]",
          "name": "tokenIDs",
          "type": "uint256[]"
        }
      ],
      "name": "burnTokens",
      "outputs": [],
      "stateMutability": "payable",
      "type": "function"
    },
    {
      "inputs": [
        {
          "internalType": "string",
          "name": "_username",
          "type": "string"
        }
      ],
      "name": "checkUsername",
      "outputs": [
        {
          "internalType": "bool",
          "name": "",
          "type": "bool"
        }
      ],
      "stateMutability": "view",
      "type": "function"
    },
    {
      "inputs": [
        {
          "components": [
            {
              "internalType": "uint256",
              "name": "id",
              "type": "uint256"
            },
            {
              "internalType": "string",
              "name": "name",
              "type": "string"
            },
            {
              "internalType": "uint256",
              "name": "questions",
              "type": "uint256"
            },
            {
              "internalType": "uint256",
              "name": "answers",
              "type": "uint256"
            },
            {
              "internalType": "string",
              "name": "start",
              "type": "string"
            },
            {
              "internalType": "string",
              "name": "end",
              "type": "string"
            },
            {
              "internalType": "string",
              "name": "duration",
              "type": "string"
            },
            {
              "internalType": "address",
              "name": "faculty",
              "type": "address"
            },
            {
              "internalType": "bool",
              "name": "showScore",
              "type": "bool"
            }
          ],
          "internalType": "struct ExamPortal.Exam",
          "name": "exam",
          "type": "tuple"
        },
        {
          "internalType": "string[]",
          "name": "quesNans",
          "type": "string[]"
        },
        {
          "internalType": "uint256[]",
          "name": "prices",
          "type": "uint256[]"
        },
        {
          "internalType": "string[]",
          "name": "students",
          "type": "string[]"
        }
      ],
      "name": "createExam",
      "outputs": [],
      "stateMutability": "nonpayable",
      "type": "function"
    },
    {
      "inputs": [
        {
          "internalType": "string[]",
          "name": "tokenURIs",
          "type": "string[]"
        },
        {
          "internalType": "uint256[]",
          "name": "prices",
          "type": "uint256[]"
        }
      ],
      "name": "createTokens",
      "outputs": [
        {
          "internalType": "uint256[]",
          "name": "",
          "type": "uint256[]"
        }
      ],
      "stateMutability": "nonpayable",
      "type": "function"
    },
    {
      "inputs": [
        {
          "internalType": "uint256",
          "name": "_examID",
          "type": "uint256"
        }
      ],
      "name": "deleteExam",
      "outputs": [],
      "stateMutability": "nonpayable",
      "type": "function"
    },
    {
      "inputs": [
        {
          "internalType": "uint256",
          "name": "_examID",
          "type": "uint256"
        }
      ],
      "name": "examSubmitted",
      "outputs": [
        {
          "internalType": "bool",
          "name": "",
          "type": "bool"
        }
      ],
      "stateMutability": "view",
      "type": "function"
    },
    {
      "inputs": [
        {
          "internalType": "uint256[]",
          "name": "tokenIDs",
          "type": "uint256[]"
        },
        {
          "internalType": "address",
          "name": "buyer",
          "type": "address"
        }
      ],
      "name": "freeTransferToken",
      "outputs": [],
      "stateMutability": "payable",
      "type": "function"
    },
    {
      "inputs": [
        {
          "internalType": "uint256",
          "name": "_examID",
          "type": "uint256"
        }
      ],
      "name": "getAnswers",
      "outputs": [
        {
          "internalType": "uint256",
          "name": "",
          "type": "uint256"
        }
      ],
      "stateMutability": "view",
      "type": "function"
    },
    {
      "inputs": [
        {
          "internalType": "uint256",
          "name": "tokenId",
          "type": "uint256"
        }
      ],
      "name": "getApproved",
      "outputs": [
        {
          "internalType": "address",
          "name": "",
          "type": "address"
        }
      ],
      "stateMutability": "view",
      "type": "function"
    },
    {
      "inputs": [],
      "name": "getExams",
      "outputs": [
        {
          "components": [
            {
              "internalType": "uint256",
              "name": "id",
              "type": "uint256"
            },
            {
              "internalType": "string",
              "name": "name",
              "type": "string"
            },
            {
              "internalType": "uint256",
              "name": "questions",
              "type": "uint256"
            },
            {
              "internalType": "uint256",
              "name": "answers",
              "type": "uint256"
            },
            {
              "internalType": "string",
              "name": "start",
              "type": "string"
            },
            {
              "internalType": "string",
              "name": "end",
              "type": "string"
            },
            {
              "internalType": "string",
              "name": "duration",
              "type": "string"
            },
            {
              "internalType": "address",
              "name": "faculty",
              "type": "address"
            },
            {
              "internalType": "bool",
              "name": "showScore",
              "type": "bool"
            }
          ],
          "internalType": "struct ExamPortal.Exam[]",
          "name": "",
          "type": "tuple[]"
        }
      ],
      "stateMutability": "view",
      "type": "function"
    },
    {
      "inputs": [
        {
          "internalType": "uint256",
          "name": "_examID",
          "type": "uint256"
        }
      ],
      "name": "getMyScore",
      "outputs": [
        {
          "internalType": "string",
          "name": "",
          "type": "string"
        }
      ],
      "stateMutability": "view",
      "type": "function"
    },
    {
      "inputs": [],
      "name": "getMyTokens",
      "outputs": [
        {
          "components": [
            {
              "internalType": "uint256",
              "name": "tokenID",
              "type": "uint256"
            },
            {
              "internalType": "address payable",
              "name": "owner",
              "type": "address"
            },
            {
              "internalType": "uint256",
              "name": "price",
              "type": "uint256"
            },
            {
              "internalType": "uint256",
              "name": "fee",
              "type": "uint256"
            },
            {
              "internalType": "bool",
              "name": "doTransfer",
              "type": "bool"
            }
          ],
          "internalType": "struct ERC721Portal.Token[]",
          "name": "",
          "type": "tuple[]"
        }
      ],
      "stateMutability": "view",
      "type": "function"
    },
    {
      "inputs": [],
      "name": "getMyTransferableTokens",
      "outputs": [
        {
          "components": [
            {
              "internalType": "uint256",
              "name": "tokenID",
              "type": "uint256"
            },
            {
              "internalType": "address payable",
              "name": "owner",
              "type": "address"
            },
            {
              "internalType": "uint256",
              "name": "price",
              "type": "uint256"
            },
            {
              "internalType": "uint256",
              "name": "fee",
              "type": "uint256"
            },
            {
              "internalType": "bool",
              "name": "doTransfer",
              "type": "bool"
            }
          ],
          "internalType": "struct ERC721Portal.Token[]",
          "name": "",
          "type": "tuple[]"
        }
      ],
      "stateMutability": "view",
      "type": "function"
    },
    {
      "inputs": [],
      "name": "getPortalFee",
      "outputs": [
        {
          "internalType": "uint256",
          "name": "",
          "type": "uint256"
        }
      ],
      "stateMutability": "view",
      "type": "function"
    },
    {
      "inputs": [
        {
          "internalType": "uint256",
          "name": "_examID",
          "type": "uint256"
        }
      ],
      "name": "getQuestions",
      "outputs": [
        {
          "internalType": "uint256",
          "name": "",
          "type": "uint256"
        }
      ],
      "stateMutability": "view",
      "type": "function"
    },
    {
      "inputs": [
        {
          "internalType": "uint256",
          "name": "_examID",
          "type": "uint256"
        }
      ],
      "name": "getResponses",
      "outputs": [
        {
          "components": [
            {
              "internalType": "address",
              "name": "userAddress",
              "type": "address"
            },
            {
              "internalType": "uint256",
              "name": "response",
              "type": "uint256"
            },
            {
              "internalType": "string",
              "name": "score",
              "type": "string"
            }
          ],
          "internalType": "struct ExamPortal.Response[]",
          "name": "",
          "type": "tuple[]"
        },
        {
          "internalType": "string[]",
          "name": "",
          "type": "string[]"
        }
      ],
      "stateMutability": "view",
      "type": "function"
    },
    {
      "inputs": [],
      "name": "getTransferableTokens",
      "outputs": [
        {
          "components": [
            {
              "internalType": "uint256",
              "name": "tokenID",
              "type": "uint256"
            },
            {
              "internalType": "address payable",
              "name": "owner",
              "type": "address"
            },
            {
              "internalType": "uint256",
              "name": "price",
              "type": "uint256"
            },
            {
              "internalType": "uint256",
              "name": "fee",
              "type": "uint256"
            },
            {
              "internalType": "bool",
              "name": "doTransfer",
              "type": "bool"
            }
          ],
          "internalType": "struct ERC721Portal.Token[]",
          "name": "",
          "type": "tuple[]"
        }
      ],
      "stateMutability": "view",
      "type": "function"
    },
    {
      "inputs": [],
      "name": "getUser",
      "outputs": [
        {
          "components": [
            {
              "internalType": "uint256",
              "name": "id",
              "type": "uint256"
            },
            {
              "internalType": "string",
              "name": "username",
              "type": "string"
            },
            {
              "internalType": "string",
              "name": "name",
              "type": "string"
            },
            {
              "internalType": "bool",
              "name": "isFaculty",
              "type": "bool"
            },
            {
              "internalType": "bool",
              "name": "registered",
              "type": "bool"
            }
          ],
          "internalType": "struct ExamPortal.User",
          "name": "",
          "type": "tuple"
        }
      ],
      "stateMutability": "view",
      "type": "function"
    },
    {
      "inputs": [
        {
          "internalType": "address",
          "name": "owner",
          "type": "address"
        },
        {
          "internalType": "address",
          "name": "operator",
          "type": "address"
        }
      ],
      "name": "isApprovedForAll",
      "outputs": [
        {
          "internalType": "bool",
          "name": "",
          "type": "bool"
        }
      ],
      "stateMutability": "view",
      "type": "function"
    },
    {
      "inputs": [
        {
          "internalType": "uint256",
          "name": "_tokenID",
          "type": "uint256"
        }
      ],
      "name": "makeTokenNonTransferable",
      "outputs": [],
      "stateMutability": "payable",
      "type": "function"
    },
    {
      "inputs": [
        {
          "internalType": "uint256",
          "name": "_tokenID",
          "type": "uint256"
        }
      ],
      "name": "makeTokenTransferable",
      "outputs": [],
      "stateMutability": "payable",
      "type": "function"
    },
    {
      "inputs": [],
      "name": "name",
      "outputs": [
        {
          "internalType": "string",
          "name": "",
          "type": "string"
        }
      ],
      "stateMutability": "view",
      "type": "function"
    },
    {
      "inputs": [
        {
          "internalType": "uint256",
          "name": "tokenId",
          "type": "uint256"
        }
      ],
      "name": "ownerOf",
      "outputs": [
        {
          "internalType": "address",
          "name": "",
          "type": "address"
        }
      ],
      "stateMutability": "view",
      "type": "function"
    },
    {
      "inputs": [
        {
          "internalType": "uint256[]",
          "name": "tokenIDs",
          "type": "uint256[]"
        }
      ],
      "name": "payTransferToken",
      "outputs": [],
      "stateMutability": "payable",
      "type": "function"
    },
    {
      "inputs": [
        {
          "internalType": "uint256",
          "name": "_examID",
          "type": "uint256"
        },
        {
          "internalType": "string[]",
          "name": "scores",
          "type": "string[]"
        }
      ],
      "name": "publishScore",
      "outputs": [],
      "stateMutability": "nonpayable",
      "type": "function"
    },
    {
      "inputs": [
        {
          "components": [
            {
              "internalType": "uint256",
              "name": "id",
              "type": "uint256"
            },
            {
              "internalType": "string",
              "name": "username",
              "type": "string"
            },
            {
              "internalType": "string",
              "name": "name",
              "type": "string"
            },
            {
              "internalType": "bool",
              "name": "isFaculty",
              "type": "bool"
            },
            {
              "internalType": "bool",
              "name": "registered",
              "type": "bool"
            }
          ],
          "internalType": "struct ExamPortal.User",
          "name": "user",
          "type": "tuple"
        }
      ],
      "name": "register",
      "outputs": [],
      "stateMutability": "nonpayable",
      "type": "function"
    },
    {
      "inputs": [
        {
          "internalType": "address",
          "name": "from",
          "type": "address"
        },
        {
          "internalType": "address",
          "name": "to",
          "type": "address"
        },
        {
          "internalType": "uint256",
          "name": "tokenId",
          "type": "uint256"
        }
      ],
      "name": "safeTransferFrom",
      "outputs": [],
      "stateMutability": "nonpayable",
      "type": "function"
    },
    {
      "inputs": [
        {
          "internalType": "address",
          "name": "from",
          "type": "address"
        },
        {
          "internalType": "address",
          "name": "to",
          "type": "address"
        },
        {
          "internalType": "uint256",
          "name": "tokenId",
          "type": "uint256"
        },
        {
          "internalType": "bytes",
          "name": "data",
          "type": "bytes"
        }
      ],
      "name": "safeTransferFrom",
      "outputs": [],
      "stateMutability": "nonpayable",
      "type": "function"
    },
    {
      "inputs": [
        {
          "internalType": "address",
          "name": "operator",
          "type": "address"
        },
        {
          "internalType": "bool",
          "name": "approved",
          "type": "bool"
        }
      ],
      "name": "setApprovalForAll",
      "outputs": [],
      "stateMutability": "nonpayable",
      "type": "function"
    },
    {
      "inputs": [
        {
          "internalType": "uint256",
          "name": "_examID",
          "type": "uint256"
        },
        {
          "internalType": "string[]",
          "name": "URI",
          "type": "string[]"
        },
        {
          "internalType": "uint256[]",
          "name": "price",
          "type": "uint256[]"
        }
      ],
      "name": "submitExam",
      "outputs": [],
      "stateMutability": "nonpayable",
      "type": "function"
    },
    {
      "inputs": [
        {
          "internalType": "bytes4",
          "name": "interfaceId",
          "type": "bytes4"
        }
      ],
      "name": "supportsInterface",
      "outputs": [
        {
          "internalType": "bool",
          "name": "",
          "type": "bool"
        }
      ],
      "stateMutability": "view",
      "type": "function"
    },
    {
      "inputs": [],
      "name": "symbol",
      "outputs": [
        {
          "internalType": "string",
          "name": "",
          "type": "string"
        }
      ],
      "stateMutability": "view",
      "type": "function"
    },
    {
      "inputs": [
        {
          "internalType": "uint256",
          "name": "tokenId",
          "type": "uint256"
        }
      ],
      "name": "tokenURI",
      "outputs": [
        {
          "internalType": "string",
          "name": "",
          "type": "string"
        }
      ],
      "stateMutability": "view",
      "type": "function"
    },
    {
      "inputs": [
        {
          "internalType": "address",
          "name": "from",
          "type": "address"
        },
        {
          "internalType": "address",
          "name": "to",
          "type": "address"
        },
        {
          "internalType": "uint256",
          "name": "tokenId",
          "type": "uint256"
        }
      ],
      "name": "transferFrom",
      "outputs": [],
      "stateMutability": "nonpayable",
      "type": "function"
    },
    {
      "inputs": [
        {
          "components": [
            {
              "internalType": "uint256",
              "name": "id",
              "type": "uint256"
            },
            {
              "internalType": "string",
              "name": "name",
              "type": "string"
            },
            {
              "internalType": "uint256",
              "name": "questions",
              "type": "uint256"
            },
            {
              "internalType": "uint256",
              "name": "answers",
              "type": "uint256"
            },
            {
              "internalType": "string",
              "name": "start",
              "type": "string"
            },
            {
              "internalType": "string",
              "name": "end",
              "type": "string"
            },
            {
              "internalType": "string",
              "name": "duration",
              "type": "string"
            },
            {
              "internalType": "address",
              "name": "faculty",
              "type": "address"
            },
            {
              "internalType": "bool",
              "name": "showScore",
              "type": "bool"
            }
          ],
          "internalType": "struct ExamPortal.Exam",
          "name": "exam",
          "type": "tuple"
        }
      ],
      "name": "updateExamDetails",
      "outputs": [],
      "stateMutability": "nonpayable",
      "type": "function"
    },
    {
      "inputs": [
        {
          "internalType": "uint256",
          "name": "_portalFee",
          "type": "uint256"
        }
      ],
      "name": "updatePortalFee",
      "outputs": [],
      "stateMutability": "nonpayable",
      "type": "function"
    },
    {
      "inputs": [
        {
          "internalType": "uint256",
          "name": "_tokenID",
          "type": "uint256"
        },
        {
          "internalType": "uint256",
          "name": "_price",
          "type": "uint256"
        }
      ],
      "name": "updateTokenPrice",
      "outputs": [],
      "stateMutability": "nonpayable",
      "type": "function"
    },
    {
      "inputs": [
        {
          "components": [
            {
              "internalType": "uint256",
              "name": "id",
              "type": "uint256"
            },
            {
              "internalType": "string",
              "name": "username",
              "type": "string"
            },
            {
              "internalType": "string",
              "name": "name",
              "type": "string"
            },
            {
              "internalType": "bool",
              "name": "isFaculty",
              "type": "bool"
            },
            {
              "internalType": "bool",
              "name": "registered",
              "type": "bool"
            }
          ],
          "internalType": "struct ExamPortal.User",
          "name": "user",
          "type": "tuple"
        }
      ],
      "name": "updateUser",
      "outputs": [],
      "stateMutability": "nonpayable",
      "type": "function"
    },
    {
      "inputs": [
        {
          "internalType": "uint256",
          "name": "_examID",
          "type": "uint256"
        }
      ],
      "name": "userHasExam",
      "outputs": [
        {
          "internalType": "bool",
          "name": "",
          "type": "bool"
        }
      ],
      "stateMutability": "view",
      "type": "function"
    }
  ],
  "bytecode": "0x608060405260016009553480156200001657600080fd5b506040805180820182526009815268131bd8d85b0813919560ba1b6020808301918252835180850190945260048452631313919560e21b90840152815160009391620000659185919062000099565b5080516200007b90600190602084019062000099565b5050600880546001600160a01b03191633179055506009556200017c565b828054620000a7906200013f565b90600052602060002090601f016020900481019282620000cb576000855562000116565b82601f10620000e657805160ff191683800117855562000116565b8280016001018555821562000116579182015b8281111562000116578251825591602001919060010190620000f9565b506200012492915062000128565b5090565b5b8082111562000124576000815560010162000129565b600181811c908216806200015457607f821691505b602082108114156200017657634e487b7160e01b600052602260045260246000fd5b50919050565b6154ca806200018c6000396000f3fe6080604052600436106102465760003560e01c806367a5317311610139578063a38bbd2f116100b6578063c87b56dd1161007a578063c87b56dd146106a9578063d0b96d2a146106c9578063dd7777f2146106de578063e985e9c5146106fe578063eb42d19914610747578063faa2218d1461076757600080fd5b8063a38bbd2f14610607578063a5d87c4014610627578063b0b1d68414610647578063b88d4fde1461065c578063bbd4e0af1461067c57600080fd5b8063897925f5116100fd578063897925f51461057257806395d89b4114610592578063965ee1f8146105a757806398a04f7c146105c7578063a22cb465146105e757600080fd5b806367a53173146104cf57806370a08231146104e257806371ee2ce114610502578063761ef41514610530578063832880e71461055057600080fd5b80632907a1b3116101c7578063587a0e3a1161018b578063587a0e3a146104475780635b3b136a14610467578063608dec8e1461047c578063610358d71461049c5780636352211e146104af57600080fd5b80632907a1b3146103ce5780632eb3873a146103e157806342842e0e146103f45780634db884261461041457806350bce7751461042757600080fd5b80631bf5993c1161020e5780631bf5993c1461031e5780631e59e02a1461033e5780632293e9d61461036c578063236472ce1461038c57806323b872dd146103ae57600080fd5b806301ffc9a71461024b57806306fdde0314610280578063081812fc146102a2578063095ea7b3146102da57806312d09ac2146102fc575b600080fd5b34801561025757600080fd5b5061026b6102663660046148fb565b610787565b60405190151581526020015b60405180910390f35b34801561028c57600080fd5b506102956107d9565b6040516102779190615093565b3480156102ae57600080fd5b506102c26102bd366004614b8e565b61086b565b6040516001600160a01b039091168152602001610277565b3480156102e657600080fd5b506102fa6102f53660046147df565b610892565b005b34801561030857600080fd5b506103116109ad565b6040516102779190614fe3565b34801561032a57600080fd5b5061026b610339366004614b8e565b610b79565b34801561034a57600080fd5b5061035e610359366004614b8e565b610bf8565b604051908152602001610277565b34801561037857600080fd5b5061026b610387366004614b8e565b610c47565b34801561039857600080fd5b506103a1610d78565b6040516102779190614e42565b3480156103ba57600080fd5b506102fa6103c93660046146fe565b611348565b6102fa6103dc366004614b8e565b611379565b6102fa6103ef366004614883565b61149d565b34801561040057600080fd5b506102fa61040f3660046146fe565b61194b565b6102fa6104223660046148b7565b611966565b34801561043357600080fd5b5061035e610442366004614b8e565b611c7c565b34801561045357600080fd5b506102fa6104623660046149da565b611d25565b34801561047357600080fd5b50610311611faf565b34801561048857600080fd5b506102fa610497366004614b8e565b61211c565b6102fa6104aa366004614b8e565b612176565b3480156104bb57600080fd5b506102c26104ca366004614b8e565b61224e565b6102fa6104dd366004614883565b6122ae565b3480156104ee57600080fd5b5061035e6104fd3660046146b0565b61252d565b34801561050e57600080fd5b5061052261051d366004614b8e565b6125b3565b604051610277929190614f4a565b34801561053c57600080fd5b5061029561054b366004614b8e565b612892565b34801561055c57600080fd5b50610565612a27565b604051610277919061521b565b34801561057e57600080fd5b506102fa61058d366004614c6b565b612bcb565b34801561059e57600080fd5b50610295612c3e565b3480156105b357600080fd5b506102fa6105c2366004614b8e565b612c4d565b3480156105d357600080fd5b506102fa6105e2366004614bf2565b612c92565b3480156105f357600080fd5b506102fa6106023660046147b5565b612e6c565b34801561061357600080fd5b506102fa6106223660046149a6565b612e7b565b34801561063357600080fd5b5061026b610642366004614935565b612f6a565b34801561065357600080fd5b50610311612f9a565b34801561066857600080fd5b506102fa61067736600461473a565b6131c5565b34801561068857600080fd5b5061069c610697366004614809565b6131f7565b604051610277919061504f565b3480156106b557600080fd5b506102956106c4366004614b8e565b6133c7565b3480156106d557600080fd5b5060095461035e565b3480156106ea57600080fd5b506102fa6106f9366004614ad2565b6134d8565b34801561070a57600080fd5b5061026b6107193660046146cb565b6001600160a01b03918216600090815260056020908152604080832093909416825291909152205460ff1690565b34801561075357600080fd5b506102fa610762366004614a98565b6135f9565b34801561077357600080fd5b506102fa610782366004614ba7565b613782565b60006001600160e01b031982166380ac58cd60e01b14806107b857506001600160e01b03198216635b5e139f60e01b145b806107d357506301ffc9a760e01b6001600160e01b03198316145b92915050565b6060600080546107e8906153e6565b80601f0160208091040260200160405190810160405280929190818152602001828054610814906153e6565b80156108615780601f1061083657610100808354040283529160200191610861565b820191906000526020600020905b81548152906001019060200180831161084457829003601f168201915b5050505050905090565b600061087682613888565b506000908152600460205260409020546001600160a01b031690565b600061089d8261224e565b9050806001600160a01b0316836001600160a01b031614156109105760405162461bcd60e51b815260206004820152602160248201527f4552433732313a20617070726f76616c20746f2063757272656e74206f776e656044820152603960f91b60648201526084015b60405180910390fd5b336001600160a01b038216148061092c575061092c8133610719565b61099e5760405162461bcd60e51b815260206004820152603d60248201527f4552433732313a20617070726f76652063616c6c6572206973206e6f7420746f60448201527f6b656e206f776e6572206f7220617070726f76656420666f7220616c6c0000006064820152608401610907565b6109a883836138d8565b505050565b606060008060005b600754811015610a25576109d26109cd826001615367565b613946565b8015610a005750600a60006109e8836001615367565b815260208101919091526040016000206004015460ff165b15610a135782610a0f81615421565b9350505b80610a1d81615421565b9150506109b5565b506000826001600160401b03811115610a4057610a40615468565b604051908082528060200260200182016040528015610a7957816020015b610a66614201565b815260200190600190039081610a5e5790505b50905060005b600754811015610b7157610a976109cd826001615367565b8015610ac55750600a6000610aad836001615367565b815260208101919091526040016000206004015460ff165b15610b5f57600a6000610ad9836001615367565b81526020808201929092526040908101600020815160a0810183528154815260018201546001600160a01b031693810193909352600281015491830191909152600381015460608301526004015460ff16151560808201528251839085908110610b4557610b45615452565b60200260200101819052508280610b5b90615421565b9350505b80610b6981615421565b915050610a7f565b509392505050565b6000805b600083815260116020526040902054811015610bef576000838152601160205260409020805482908110610bb357610bb3615452565b60009182526020909120600390910201546001600160a01b0316331415610bdd5750600192915050565b80610be781615421565b915050610b7d565b50600092915050565b6000818152601060205260408120600701546001600160a01b03163314610c315760405162461bcd60e51b8152600401610907906151fe565b5060009081526010602052604090206003015490565b336000908152600e602052604081206001018054829190610c67906153e6565b80601f0160208091040260200160405190810160405280929190818152602001828054610c93906153e6565b8015610ce05780601f10610cb557610100808354040283529160200191610ce0565b820191906000526020600020905b815481529060010190602001808311610cc357829003601f168201915b5050505050905060005b601282604051610cfa9190614d1e565b90815260405190819003602001902054811015610d6e57601282604051610d219190614d1e565b90815260200160405180910390208181548110610d4057610d40615452565b9060005260206000200154841415610d5c575060019392505050565b80610d6681615421565b915050610cea565b5060009392505050565b336000908152600e6020526040812060010180546060929190610d9a906153e6565b80601f0160208091040260200160405190810160405280929190818152602001828054610dc6906153e6565b8015610e135780601f10610de857610100808354040283529160200191610e13565b820191906000526020600020905b815481529060010190602001808311610df657829003601f168201915b505050505090506000805b601283604051610e2e9190614d1e565b90815260405190819003602001902054811015610ed05760006001600160a01b031660106000601286604051610e649190614d1e565b90815260200160405180910390208481548110610e8357610e83615452565b600091825260208083209091015483528201929092526040019020600701546001600160a01b031614610ebe5781610eba81615421565b9250505b80610ec881615421565b915050610e1e565b50600080826001600160401b03811115610eec57610eec615468565b604051908082528060200260200182016040528015610f7757816020015b610f646040518061012001604052806000815260200160608152602001600081526020016000815260200160608152602001606081526020016060815260200160006001600160a01b031681526020016000151581525090565b815260200190600190039081610f0a5790505b50905060005b601285604051610f8d9190614d1e565b9081526040519081900360200190205481108015610faa57508383105b1561133f5760006001600160a01b031660106000601288604051610fce9190614d1e565b90815260200160405180910390208481548110610fed57610fed615452565b600091825260208083209091015483528201929092526040019020600701546001600160a01b03161461132d576010600060128760405161102e9190614d1e565b9081526020016040518091039020838154811061104d5761104d615452565b90600052602060002001548152602001908152602001600020604051806101200160405290816000820154815260200160018201805461108c906153e6565b80601f01602080910402602001604051908101604052809291908181526020018280546110b8906153e6565b80156111055780601f106110da57610100808354040283529160200191611105565b820191906000526020600020905b8154815290600101906020018083116110e857829003601f168201915b505050505081526020016002820154815260200160038201548152602001600482018054611132906153e6565b80601f016020809104026020016040519081016040528092919081815260200182805461115e906153e6565b80156111ab5780601f10611180576101008083540402835291602001916111ab565b820191906000526020600020905b81548152906001019060200180831161118e57829003601f168201915b505050505081526020016005820180546111c4906153e6565b80601f01602080910402602001604051908101604052809291908181526020018280546111f0906153e6565b801561123d5780601f106112125761010080835404028352916020019161123d565b820191906000526020600020905b81548152906001019060200180831161122057829003601f168201915b50505050508152602001600682018054611256906153e6565b80601f0160208091040260200160405190810160405280929190818152602001828054611282906153e6565b80156112cf5780601f106112a4576101008083540402835291602001916112cf565b820191906000526020600020905b8154815290600101906020018083116112b257829003601f168201915b5050509183525050600791909101546001600160a01b0381166020830152600160a01b900460ff161515604090910152825183908590811061131357611313615452565b6020026020010181905250828061132990615421565b9350505b8061133781615421565b915050610f7d565b50949350505050565b6113523382613963565b61136e5760405162461bcd60e51b8152600401610907906150a6565b6109a88383836139e1565b61138281613946565b61139e5760405162461bcd60e51b8152600401610907906151e1565b6000818152600a60205260409020600101546001600160a01b031633146113d75760405162461bcd60e51b8152600401610907906151a7565b6000818152600a602052604090206004015460ff161561149a576000818152600a602052604090206003015415611480576000818152600a60205260408082206003015490513391908381818185875af1925050503d8060008114611458576040519150601f19603f3d011682016040523d82523d6000602084013e61145d565b606091505b505090508061147e5760405162461bcd60e51b8152600401610907906151c4565b505b6000818152600a60205260409020600401805460ff191690555b50565b60008151116114be5760405162461bcd60e51b8152600401610907906150f3565b60008060005b8351811015611600576114ef8482815181106114e2576114e2615452565b6020026020010151613946565b61150b5760405162461bcd60e51b8152600401610907906151e1565b600a600085838151811061152157611521615452565b60209081029190910181015182528101919091526040016000206004015460ff166115745760405162461bcd60e51b815260206004820152600360248201526215139560ea1b6044820152606401610907565b600a600085838151811061158a5761158a615452565b6020026020010151815260200190815260200160002060020154826115af9190615367565b9150600a60008583815181106115c7576115c7615452565b6020026020010151815260200190815260200160002060030154836115ec9190615367565b9250806115f881615421565b9150506114c4565b508034146116365760405162461bcd60e51b815260206004820152600360248201526204956560ec1b6044820152606401610907565b60005b83518110156118a5576000600a600086848151811061165a5761165a615452565b6020026020010151815260200190815260200160002060010160009054906101000a90046001600160a01b03166001600160a01b0316600a60008785815181106116a6576116a6615452565b602002602001015181526020019081526020016000206002015460405160006040518083038185875af1925050503d8060008114611700576040519150601f19603f3d011682016040523d82523d6000602084013e611705565b606091505b50509050801561187a57611775600a600087858151811061172857611728615452565b6020026020010151815260200190815260200160002060010160009054906101000a90046001600160a01b03163387858151811061176857611768615452565b60200260200101516139e1565b600b6000600a600088868151811061178f5761178f615452565b60209081029190910181015182528181019290925260409081016000908120600101546001600160a01b0316845291830193909352910181208054916117d4836153cf565b919050555033600a60008785815181106117f0576117f0615452565b6020026020010151815260200190815260200160002060010160006101000a8154816001600160a01b0302191690836001600160a01b031602179055506000600a600087858151811061184557611845615452565b6020026020010151815260200190815260200160002060040160006101000a81548160ff021916908315150217905550611892565b60405162461bcd60e51b8152600401610907906151c4565b508061189d81615421565b915050611639565b508251336000908152600b6020526040812080549091906118c7908490615367565b909155505081156109a8576008546040516000916001600160a01b03169084908381818185875af1925050503d806000811461191f576040519150601f19603f3d011682016040523d82523d6000602084013e611924565b606091505b50509050806119455760405162461bcd60e51b8152600401610907906151c4565b50505050565b6109a8838383604051806020016040528060008152506131c5565b60008251116119875760405162461bcd60e51b8152600401610907906150f3565b6000805b8351811015611ad8576119a98482815181106114e2576114e2615452565b6119c55760405162461bcd60e51b8152600401610907906151e1565b600a60008583815181106119db576119db615452565b6020908102919091018101518252810191909152604001600020600101546001600160a01b03163314611a205760405162461bcd60e51b8152600401610907906151a7565b600a6000858381518110611a3657611a36615452565b60209081029190910181015182528101919091526040016000206004015460ff16611a895760405162461bcd60e51b815260206004820152600360248201526215139560ea1b6044820152606401610907565b600a6000858381518110611a9f57611a9f615452565b602002602001015181526020019081526020016000206003015482611ac49190615367565b915080611ad081615421565b91505061198b565b508015611b54576008546040516000916001600160a01b03169083908381818185875af1925050503d8060008114611b2c576040519150601f19603f3d011682016040523d82523d6000602084013e611b31565b606091505b5050905080611b525760405162461bcd60e51b8152600401610907906151c4565b505b82516001600160a01b0383166000908152600b602052604081208054909190611b7e908490615367565b90915550508251336000908152600b602052604081208054909190611ba490849061537f565b90915550600090505b835181101561194557611bcd338486848151811061176857611768615452565b82600a6000868481518110611be457611be4615452565b6020026020010151815260200190815260200160002060010160006101000a8154816001600160a01b0302191690836001600160a01b031602179055506000600a6000868481518110611c3957611c39615452565b6020026020010151815260200190815260200160002060040160006101000a81548160ff0219169083151502179055508080611c7490615421565b915050611bad565b6000611c8782610c47565b611cb95760405162461bcd60e51b81526020600482015260036024820152622722a360e91b6044820152606401610907565b336000908152600e602052604090206003015460ff16611d0f57611cdc82610b79565b15611d0f5760405162461bcd60e51b815260206004820152600360248201526245415360e81b6044820152606401610907565b5060009081526010602052604090206002015490565b336000908152600e602052604090206003015460ff16611d575760405162461bcd60e51b8152600401610907906151fe565b6000611d9f611d668789615396565b8686808060200260200160405190810160405280939291908181526020018383602002808284376000920191909152506131f792505050565b9050611daf600d80546001019055565b600d54885280518190600090611dc757611dc7615452565b602002602001015188604001818152505080600181518110611deb57611deb615452565b60209081029190910181015160608a01523360e08a0181905260006101008b01819052908152600e9091526040908190209051601291611e3091600190910190614d69565b90815260405160209181900382019020895181546001810183556000928352928220909201919091555b82811015611ecf576012848483818110611e7657611e76615452565b9050602002810190611e889190615283565b604051611e96929190614d0e565b908152604051602091819003820190208a5181546001810183556000928352929091209091015580611ec781615421565b915050611e5a565b508751600090815260106020908152604090912089518155818a015180518b93611f0092600185019291019061423b565b50604082015160028201556060820151600382015560808201518051611f3091600484019160209091019061423b565b5060a08201518051611f4c91600584019160209091019061423b565b5060c08201518051611f6891600684019160209091019061423b565b5060e082015160079091018054610100909301511515600160a01b026001600160a81b03199093166001600160a01b03909216919091179190911790555050505050505050565b336000908152600b60205260408120546060919081906001600160401b03811115611fdc57611fdc615468565b60405190808252806020026020018201604052801561201557816020015b612002614201565b815260200190600190039081611ffa5790505b50905060005b600754811015612115576120336109cd826001615367565b80156120695750600a6000612049836001615367565b81526020810191909152604001600020600101546001600160a01b031633145b1561210357600a600061207d836001615367565b81526020808201929092526040908101600020815160a0810183528154815260018201546001600160a01b031693810193909352600281015491830191909152600381015460608301526004015460ff161515608082015282518390859081106120e9576120e9615452565b602002602001018190525082806120ff90615421565b9350505b8061210d81615421565b91505061201b565b5092915050565b6000818152601060205260409020600701546001600160a01b031633146121555760405162461bcd60e51b8152600401610907906151fe565b600090815260106020526040902060070180546001600160a01b0319169055565b61217f81613946565b61219b5760405162461bcd60e51b8152600401610907906151e1565b6000818152600a60205260409020600101546001600160a01b031633146121d45760405162461bcd60e51b8152600401610907906151a7565b600954341461220b5760405162461bcd60e51b815260206004820152600360248201526204956560ec1b6044820152606401610907565b6000818152600a602052604090206004015460ff1661149a576009546000828152600a602052604090206003810191909155600401805460ff1916600117905550565b6000818152600260205260408120546001600160a01b0316806107d35760405162461bcd60e51b8152602060048201526018602482015277115490cdcc8c4e881a5b9d985b1a59081d1bdad95b88125160421b6044820152606401610907565b60008151116122cf5760405162461bcd60e51b8152600401610907906150f3565b6000805b82518110156123f4576122f18382815181106114e2576114e2615452565b61230d5760405162461bcd60e51b8152600401610907906151e1565b600a600084838151811061232357612323615452565b6020908102919091018101518252810191909152604001600020600101546001600160a01b031633146123685760405162461bcd60e51b8152600401610907906151a7565b600a600084838151811061237e5761237e615452565b60209081029190910181015182528101919091526040016000206004015460ff16156123e257600a60008483815181106123ba576123ba615452565b6020026020010151815260200190815260200160002060030154826123df9190615367565b91505b806123ec81615421565b9150506122d3565b508015612470576008546040516000916001600160a01b03169083908381818185875af1925050503d8060008114612448576040519150601f19603f3d011682016040523d82523d6000602084013e61244d565b606091505b505090508061246e5760405162461bcd60e51b8152600401610907906151c4565b505b8151336000908152600b60205260408120805490919061249190849061537f565b90915550600090505b82518110156109a8576124c58382815181106124b8576124b8615452565b6020026020010151613b45565b6000600a60008584815181106124dd576124dd615452565b6020026020010151815260200190815260200160002060010160006101000a8154816001600160a01b0302191690836001600160a01b03160217905550808061252590615421565b91505061249a565b60006001600160a01b0382166125975760405162461bcd60e51b815260206004820152602960248201527f4552433732313a2061646472657373207a65726f206973206e6f7420612076616044820152683634b21037bbb732b960b91b6064820152608401610907565b506001600160a01b031660009081526003602052604090205490565b60008181526010602052604090206007015460609081906001600160a01b031633146125f15760405162461bcd60e51b8152600401610907906151fe565b6000838152601160205260408120546001600160401b0381111561261757612617615468565b60405190808252806020026020018201604052801561264a57816020015b60608152602001906001900390816126355790505b50905060005b6000858152601160205260409020548110156127705760008581526011602052604081208054600e9291908490811061268b5761268b615452565b600091825260208083206003909202909101546001600160a01b03168352820192909252604001902060010180546126c2906153e6565b80601f01602080910402602001604051908101604052809291908181526020018280546126ee906153e6565b801561273b5780601f106127105761010080835404028352916020019161273b565b820191906000526020600020905b81548152906001019060200180831161271e57829003601f168201915b505050505082828151811061275257612752615452565b6020026020010181905250808061276890615421565b915050612650565b5060008481526011602090815260408083208054825181850281018501909352808352909385938592919084015b82821015612882576000848152602090819020604080516060810182526003860290920180546001600160a01b03168352600181015493830193909352600283018054929392918401916127f1906153e6565b80601f016020809104026020016040519081016040528092919081815260200182805461281d906153e6565b801561286a5780601f1061283f5761010080835404028352916020019161286a565b820191906000526020600020905b81548152906001019060200180831161284d57829003601f168201915b5050505050815250508152602001906001019061279e565b5050505091509250925050915091565b600081815260106020526040902060070154606090600160a01b900460ff166128e35760405162461bcd60e51b8152602060048201526003602482015262534e4160e81b6044820152606401610907565b60005b600083815260116020526040902054811015612a1157600083815260116020526040902080548290811061291c5761291c615452565b60009182526020909120600390910201546001600160a01b03163314156129ff57600083815260116020526040902080548290811061295d5761295d615452565b90600052602060002090600302016002018054612979906153e6565b80601f01602080910402602001604051908101604052809291908181526020018280546129a5906153e6565b80156129f25780601f106129c7576101008083540402835291602001916129f2565b820191906000526020600020905b8154815290600101906020018083116129d557829003601f168201915b5050505050915050919050565b80612a0981615421565b9150506128e6565b5050604080516020810190915260008152919050565b612a5d6040518060a001604052806000815260200160608152602001606081526020016000151581526020016000151581525090565b336000908152600e6020908152604091829020825160a08101909352805483526001810180549192840191612a91906153e6565b80601f0160208091040260200160405190810160405280929190818152602001828054612abd906153e6565b8015612b0a5780601f10612adf57610100808354040283529160200191612b0a565b820191906000526020600020905b815481529060010190602001808311612aed57829003601f168201915b50505050508152602001600282018054612b23906153e6565b80601f0160208091040260200160405190810160405280929190818152602001828054612b4f906153e6565b8015612b9c5780601f10612b7157610100808354040283529160200191612b9c565b820191906000526020600020905b815481529060010190602001808311612b7f57829003601f168201915b50505091835250506003919091015460ff80821615156020840152610100909104161515604090910152919050565b612bd482613946565b612bf05760405162461bcd60e51b8152600401610907906151e1565b6000828152600a60205260409020600101546001600160a01b03163314612c295760405162461bcd60e51b8152600401610907906151a7565b6000918252600a602052604090912060020155565b6060600180546107e8906153e6565b6008546001600160a01b03163314612c8d5760405162461bcd60e51b8152602060048201526003602482015262554e4360e81b6044820152606401610907565b600955565b336000908152600e602052604090206003015460ff1615612cdb5760405162461bcd60e51b8152602060048201526003602482015262554e5360e81b6044820152606401610907565b612ce485610c47565b612d165760405162461bcd60e51b81526020600482015260036024820152622722a360e91b6044820152606401610907565b6000858152601060205260409020600701546001600160a01b0316612d635760405162461bcd60e51b8152602060048201526003602482015262454e4160e81b6044820152606401610907565b612d6c85610b79565b15612d9f5760405162461bcd60e51b815260206004820152600360248201526245415360e81b6044820152606401610907565b60008581526011602090815260409182902082516060810190935233835291908101612dce611d668789615396565b600081518110612de057612de0615452565b60209081029190910181015182526040805180820182526001808252602d60f81b828501529383015284548084018655600095865294829020845160039096020180546001600160a01b0319166001600160a01b039096169590951785558382015192850192909255908201518051929392612e62926002850192019061423b565b5050505050505050565b612e77338383613b85565b5050565b80516000908152601060205260409020600701546001600160a01b03163314612eb65760405162461bcd60e51b8152600401610907906151fe565b6020808201518251600090815260108352604090208151612ee0936001909201929091019061423b565b506080810151815160009081526010602090815260409091208251612f0e936004909201929091019061423b565b5060a0810151815160009081526010602090815260409091208251612f3c936005909201929091019061423b565b5060c0810151815160009081526010602090815260409091208251612e77936006909201929091019061423b565b6000600f8383604051612f7e929190614d0e565b9081526040519081900360200190205460ff1615905092915050565b606060008060005b60075481101561304357612fba6109cd826001615367565b8015612ff05750600a6000612fd0836001615367565b81526020810191909152604001600020600101546001600160a01b031633145b801561301e5750600a6000613006836001615367565b815260208101919091526040016000206004015460ff165b15613031578261302d81615421565b9350505b8061303b81615421565b915050612fa2565b506000826001600160401b0381111561305e5761305e615468565b60405190808252806020026020018201604052801561309757816020015b613084614201565b81526020019060019003908161307c5790505b50905060005b600754811015610b71576130b56109cd826001615367565b80156130eb5750600a60006130cb836001615367565b81526020810191909152604001600020600101546001600160a01b031633145b80156131195750600a6000613101836001615367565b815260208101919091526040016000206004015460ff165b156131b357600a600061312d836001615367565b81526020808201929092526040908101600020815160a0810183528154815260018201546001600160a01b031693810193909352600281015491830191909152600381015460608301526004015460ff1615156080820152825183908590811061319957613199615452565b602002602001018190525082806131af90615421565b9350505b806131bd81615421565b91505061309d565b6131cf3383613963565b6131eb5760405162461bcd60e51b8152600401610907906150a6565b61194584848484613c54565b60608251825114801561320b575060008251115b6132275760405162461bcd60e51b8152600401610907906150f3565b600082516001600160401b0381111561324257613242615468565b60405190808252806020026020018201604052801561326b578160200160208202803683370190505b50905060005b8451811015610b7157613288600780546001019055565b600061329360075490565b905061329f3382613c87565b6132c2818784815181106132b5576132b5615452565b6020026020010151613df4565b336000908152600b602052604081208054916132dd83615421565b91905055506040518060a00160405280828152602001336001600160a01b0316815260200186848151811061331457613314615452565b60209081029190910181015182526009548282015260006040928301819052848152600a825282902083518155908301516001820180546001600160a01b0319166001600160a01b03909216919091179055908201516002820155606082015160038201556080909101516004909101805460ff1916911515919091179055825181908490849081106133a9576133a9615452565b602090810291909101015250806133bf81615421565b915050613271565b60606133d282613888565b600082815260066020526040812080546133eb906153e6565b80601f0160208091040260200160405190810160405280929190818152602001828054613417906153e6565b80156134645780601f1061343957610100808354040283529160200191613464565b820191906000526020600020905b81548152906001019060200180831161344757829003601f168201915b50505050509050600061348260408051602081019091526000815290565b9050805160001415613495575092915050565b8151156134c75780826040516020016134af929190614d3a565b60405160208183030381529060405292505050919050565b6134d084613e7f565b949350505050565b336000908152600e6020526040902060030154610100900460ff16156135265760405162461bcd60e51b815260206004820152600360248201526220a0a960e91b6044820152606401610907565b613534600c80546001019055565b600c548152600160808201819052336000908152600e60209081526040909120835181558184015180518594929361357093850192019061423b565b506040820151805161358c91600284019160209091019061423b565b5060608201516003909101805460809093015115156101000261ff00199215159290921661ffff19909316929092171790556020810151604051600191600f916135d69190614d1e565b908152604051908190036020019020805491151560ff1990921691909117905550565b336000908152600e60205260408082209051600f9161361d91600190910190614d69565b908152602001604051809103902060006101000a81548160ff0219169083151502179055506001600f8280602001906136569190615283565b604051613664929190614d0e565b9081526040805160209281900383018120805460ff191694151594909417909355336000908152600e90925290206012916136a29160010190614d69565b908152602001604051809103902060128280602001906136c29190615283565b6040516136d0929190614d0e565b90815260405190819003602001902081546136eb92906142bf565b50336000908152600e602052604090819020905160129161371191600190910190614d69565b9081526020016040518091039020600061372b91906142ff565b6137386020820182615283565b336000908152600e602052604090206137569260019091019161431d565b506137646040820182615283565b336000908152600e60205260409020612e779260029091019161431d565b6000838152601060205260409020600701546001600160a01b031633146137bb5760405162461bcd60e51b8152600401610907906151fe565b60008381526011602052604090205481146137e85760405162461bcd60e51b8152600401610907906150f3565b6000838152601060205260408120600701805460ff60a01b1916600160a01b1790555b818110156119455782828281811061382557613825615452565b90506020028101906138379190615283565b600086815260116020526040902080548490811061385757613857615452565b9060005260206000209060030201600201919061387592919061431d565b508061388081615421565b91505061380b565b61389181613946565b61149a5760405162461bcd60e51b8152602060048201526018602482015277115490cdcc8c4e881a5b9d985b1a59081d1bdad95b88125160421b6044820152606401610907565b600081815260046020526040902080546001600160a01b0319166001600160a01b038416908117909155819061390d8261224e565b6001600160a01b03167f8c5be1e5ebec7d5bd14f71427d1e84f3dd0314c0f7b2291e5b200ac8c7c3b92560405160405180910390a45050565b6000908152600260205260409020546001600160a01b0316151590565b60008061396f8361224e565b9050806001600160a01b0316846001600160a01b031614806139b657506001600160a01b0380821660009081526005602090815260408083209388168352929052205460ff165b806134d05750836001600160a01b03166139cf8461086b565b6001600160a01b031614949350505050565b826001600160a01b03166139f48261224e565b6001600160a01b031614613a1a5760405162461bcd60e51b815260040161090790615162565b6001600160a01b038216613a7c5760405162461bcd60e51b8152602060048201526024808201527f4552433732313a207472616e7366657220746f20746865207a65726f206164646044820152637265737360e01b6064820152608401610907565b826001600160a01b0316613a8f8261224e565b6001600160a01b031614613ab55760405162461bcd60e51b815260040161090790615162565b600081815260046020908152604080832080546001600160a01b03199081169091556001600160a01b0387811680865260038552838620805460001901905590871680865283862080546001019055868652600290945282852080549092168417909155905184937fddf252ad1be2c89b69c2b068fc378daa952ba7f163c4a11628f55a4df523b3ef91a4505050565b613b4e81613ef3565b60008181526006602052604090208054613b67906153e6565b15905061149a57600081815260066020526040812061149a91614391565b816001600160a01b0316836001600160a01b03161415613be75760405162461bcd60e51b815260206004820152601960248201527f4552433732313a20617070726f766520746f2063616c6c6572000000000000006044820152606401610907565b6001600160a01b03838116600081815260056020908152604080832094871680845294825291829020805460ff191686151590811790915591519182527f17307eab39ab6107e8899845ad3d59bd9653f200f220920489ca2b5937696c31910160405180910390a3505050565b613c5f8484846139e1565b613c6b84848484613f88565b6119455760405162461bcd60e51b815260040161090790615110565b6001600160a01b038216613cdd5760405162461bcd60e51b815260206004820181905260248201527f4552433732313a206d696e7420746f20746865207a65726f20616464726573736044820152606401610907565b613ce681613946565b15613d335760405162461bcd60e51b815260206004820152601c60248201527f4552433732313a20746f6b656e20616c7265616479206d696e746564000000006044820152606401610907565b613d3c81613946565b15613d895760405162461bcd60e51b815260206004820152601c60248201527f4552433732313a20746f6b656e20616c7265616479206d696e746564000000006044820152606401610907565b6001600160a01b038216600081815260036020908152604080832080546001019055848352600290915280822080546001600160a01b0319168417905551839291907fddf252ad1be2c89b69c2b068fc378daa952ba7f163c4a11628f55a4df523b3ef908290a45050565b613dfd82613946565b613e605760405162461bcd60e51b815260206004820152602e60248201527f45524337323155524953746f726167653a2055524920736574206f66206e6f6e60448201526d32bc34b9ba32b73a103a37b5b2b760911b6064820152608401610907565b600082815260066020908152604090912082516109a89284019061423b565b6060613e8a82613888565b6000613ea160408051602081019091526000815290565b90506000815111613ec15760405180602001604052806000815250613eec565b80613ecb84614095565b604051602001613edc929190614d3a565b6040516020818303038152906040525b9392505050565b6000613efe8261224e565b9050613f098261224e565b600083815260046020908152604080832080546001600160a01b03199081169091556001600160a01b0385168085526003845282852080546000190190558785526002909352818420805490911690555192935084927fddf252ad1be2c89b69c2b068fc378daa952ba7f163c4a11628f55a4df523b3ef908390a45050565b60006001600160a01b0384163b1561408a57604051630a85bd0160e11b81526001600160a01b0385169063150b7a0290613fcc903390899088908890600401614e05565b602060405180830381600087803b158015613fe657600080fd5b505af1925050508015614016575060408051601f3d908101601f1916820190925261401391810190614918565b60015b614070573d808015614044576040519150601f19603f3d011682016040523d82523d6000602084013e614049565b606091505b5080516140685760405162461bcd60e51b815260040161090790615110565b805181602001fd5b6001600160e01b031916630a85bd0160e11b1490506134d0565b506001949350505050565b606060006140a283614129565b60010190506000816001600160401b038111156140c1576140c1615468565b6040519080825280601f01601f1916602001820160405280156140eb576020820181803683370190505b5090508181016020015b600019016f181899199a1a9b1b9c1cb0b131b232b360811b600a86061a8153600a850494508461412457610b71565b6140f5565b60008072184f03e93ff9f4daa797ed6e38ed64bf6a1f0160401b83106141685772184f03e93ff9f4daa797ed6e38ed64bf6a1f0160401b830492506040015b6d04ee2d6d415b85acef81000000008310614194576d04ee2d6d415b85acef8100000000830492506020015b662386f26fc1000083106141b257662386f26fc10000830492506010015b6305f5e10083106141ca576305f5e100830492506008015b61271083106141de57612710830492506004015b606483106141f0576064830492506002015b600a83106107d35760010192915050565b6040518060a001604052806000815260200160006001600160a01b0316815260200160008152602001600081526020016000151581525090565b828054614247906153e6565b90600052602060002090601f01602090048101928261426957600085556142af565b82601f1061428257805160ff19168380011785556142af565b828001600101855582156142af579182015b828111156142af578251825591602001919060010190614294565b506142bb9291506143c7565b5090565b8280548282559060005260206000209081019282156142af5760005260206000209182015b828111156142af5782548255916001019190600101906142e4565b508054600082559060005260206000209081019061149a91906143c7565b828054614329906153e6565b90600052602060002090601f01602090048101928261434b57600085556142af565b82601f106143645782800160ff198235161785556142af565b828001600101855582156142af579182015b828111156142af578235825591602001919060010190614376565b50805461439d906153e6565b6000825580601f106143ad575050565b601f01602090049060005260206000209081019061149a91905b5b808211156142bb57600081556001016143c8565b60006143ef6143ea84615344565b615314565b9050808382526020808301915083868660051b8601111561440f57600080fd5b6000805b8781101561444f5782356001600160401b03811115614430578283fd5b61443c8a828a01614596565b8652509383019391830191600101614413565b50505050509392505050565b60006001600160401b0383111561447457614474615468565b614487601f8401601f1916602001615314565b905082815283838301111561449b57600080fd5b828260208301376000602084830101529392505050565b80356001600160a01b03811681146144c957600080fd5b919050565b60008083601f8401126144e057600080fd5b5081356001600160401b038111156144f757600080fd5b6020830191508360208260051b850101111561451257600080fd5b9250929050565b600082601f83011261452a57600080fd5b8135602061453a6143ea83615344565b80838252828201915082860187848660051b890101111561455a57600080fd5b60005b858110156145795781358452928401929084019060010161455d565b5090979650505050505050565b803580151581146144c957600080fd5b600082601f8301126145a757600080fd5b613eec8383356020850161445b565b600061012082840312156145c957600080fd5b6145d16152c9565b90508135815260208201356001600160401b03808211156145f157600080fd5b6145fd85838601614596565b60208401526040840135604084015260608401356060840152608084013591508082111561462a57600080fd5b61463685838601614596565b608084015260a084013591508082111561464f57600080fd5b61465b85838601614596565b60a084015260c084013591508082111561467457600080fd5b5061468184828501614596565b60c08301525061469360e083016144b2565b60e08201526101006146a6818401614586565b9082015292915050565b6000602082840312156146c257600080fd5b613eec826144b2565b600080604083850312156146de57600080fd5b6146e7836144b2565b91506146f5602084016144b2565b90509250929050565b60008060006060848603121561471357600080fd5b61471c846144b2565b925061472a602085016144b2565b9150604084013590509250925092565b6000806000806080858703121561475057600080fd5b614759856144b2565b9350614767602086016144b2565b92506040850135915060608501356001600160401b0381111561478957600080fd5b8501601f8101871361479a57600080fd5b6147a98782356020840161445b565b91505092959194509250565b600080604083850312156147c857600080fd5b6147d1836144b2565b91506146f560208401614586565b600080604083850312156147f257600080fd5b6147fb836144b2565b946020939093013593505050565b6000806040838503121561481c57600080fd5b82356001600160401b038082111561483357600080fd5b818501915085601f83011261484757600080fd5b614856868335602085016143dc565b9350602085013591508082111561486c57600080fd5b5061487985828601614519565b9150509250929050565b60006020828403121561489557600080fd5b81356001600160401b038111156148ab57600080fd5b6134d084828501614519565b600080604083850312156148ca57600080fd5b82356001600160401b038111156148e057600080fd5b6148ec85828601614519565b9250506146f5602084016144b2565b60006020828403121561490d57600080fd5b8135613eec8161547e565b60006020828403121561492a57600080fd5b8151613eec8161547e565b6000806020838503121561494857600080fd5b82356001600160401b038082111561495f57600080fd5b818501915085601f83011261497357600080fd5b81358181111561498257600080fd5b86602082850101111561499457600080fd5b60209290920196919550909350505050565b6000602082840312156149b857600080fd5b81356001600160401b038111156149ce57600080fd5b6134d0848285016145b6565b60008060008060008060006080888a0312156149f557600080fd5b87356001600160401b0380821115614a0c57600080fd5b614a188b838c016145b6565b985060208a0135915080821115614a2e57600080fd5b614a3a8b838c016144ce565b909850965060408a0135915080821115614a5357600080fd5b614a5f8b838c016144ce565b909650945060608a0135915080821115614a7857600080fd5b50614a858a828b016144ce565b989b979a50959850939692959293505050565b600060208284031215614aaa57600080fd5b81356001600160401b03811115614ac057600080fd5b820160a08185031215613eec57600080fd5b600060208284031215614ae457600080fd5b81356001600160401b0380821115614afb57600080fd5b9083019060a08286031215614b0f57600080fd5b614b176152f2565b82358152602083013582811115614b2d57600080fd5b614b3987828601614596565b602083015250604083013582811115614b5157600080fd5b614b5d87828601614596565b604083015250614b6f60608401614586565b6060820152614b8060808401614586565b608082015295945050505050565b600060208284031215614ba057600080fd5b5035919050565b600080600060408486031215614bbc57600080fd5b8335925060208401356001600160401b03811115614bd957600080fd5b614be5868287016144ce565b9497909650939450505050565b600080600080600060608688031215614c0a57600080fd5b8535945060208601356001600160401b0380821115614c2857600080fd5b614c3489838a016144ce565b90965094506040880135915080821115614c4d57600080fd5b50614c5a888289016144ce565b969995985093965092949392505050565b60008060408385031215614c7e57600080fd5b50508035926020909101359150565b600081518084526020808501808196508360051b8101915082860160005b85811015614cd5578284038952614cc3848351614ce2565b98850198935090840190600101614cab565b5091979650505050505050565b60008151808452614cfa8160208601602086016153a3565b601f01601f19169290920160200192915050565b8183823760009101908152919050565b60008251614d308184602087016153a3565b9190910192915050565b60008351614d4c8184602088016153a3565b835190830190614d608183602088016153a3565b01949350505050565b600080835481600182811c915080831680614d8557607f831692505b6020808410821415614da557634e487b7160e01b86526022600452602486fd5b818015614db95760018114614dca57614df7565b60ff19861689528489019650614df7565b60008a81526020902060005b86811015614def5781548b820152908501908301614dd6565b505084890196505b509498975050505050505050565b6001600160a01b0385811682528416602082015260408101839052608060608201819052600090614e3890830184614ce2565b9695505050505050565b60006020808301818452808551808352604092508286019150828160051b87010184880160005b83811015614f3c57603f1989840301855281516101208151855288820151818a870152614e9882870182614ce2565b9150508782015188860152606080830151818701525060808083015186830382880152614ec58382614ce2565b9250505060a08083015186830382880152614ee08382614ce2565b9250505060c08083015186830382880152614efb8382614ce2565b9250505060e080830151614f19828801826001600160a01b03169052565b505061010091820151151594909101939093529386019390860190600101614e69565b509098975050505050505050565b60006040808301818452808651808352606092508286019150828160051b8701016020808a0160005b84811015614fc357898403605f19018652815180516001600160a01b031685528381015184860152880151888501889052614fb088860182614ce2565b9684019694505090820190600101614f73565b505087820390880152614fd68189614c8d565b9998505050505050505050565b602080825282518282018190526000919060409081850190868401855b82811015614cd557815180518552868101516001600160a01b03168786015285810151868601526060808201519086015260809081015115159085015260a09093019290850190600101615000565b6020808252825182820181905260009190848201906040850190845b818110156150875783518352928401929184019160010161506b565b50909695505050505050565b602081526000613eec6020830184614ce2565b6020808252602d908201527f4552433732313a2063616c6c6572206973206e6f7420746f6b656e206f776e6560408201526c1c881bdc88185c1c1c9bdd9959609a1b606082015260800190565b60208082526003908201526204941560ec1b604082015260600190565b60208082526032908201527f4552433732313a207472616e7366657220746f206e6f6e20455243373231526560408201527131b2b4bb32b91034b6b83632b6b2b73a32b960711b606082015260800190565b60208082526025908201527f4552433732313a207472616e736665722066726f6d20696e636f72726563742060408201526437bbb732b960d91b606082015260800190565b602080825260039082015262554e4f60e81b604082015260600190565b6020808252600390820152622b2a2360e91b604082015260600190565b60208082526003908201526204954560ec1b604082015260600190565b6020808252600390820152622aa72360e91b604082015260600190565b60208152815160208201526000602083015160a0604084015261524160c0840182614ce2565b90506040840151601f1984830301606085015261525e8282614ce2565b9150506060840151151560808401526080840151151560a08401528091505092915050565b6000808335601e1984360301811261529a57600080fd5b8301803591506001600160401b038211156152b457600080fd5b60200191503681900382131561451257600080fd5b60405161012081016001600160401b03811182821017156152ec576152ec615468565b60405290565b60405160a081016001600160401b03811182821017156152ec576152ec615468565b604051601f8201601f191681016001600160401b038111828210171561533c5761533c615468565b604052919050565b60006001600160401b0382111561535d5761535d615468565b5060051b60200190565b6000821982111561537a5761537a61543c565b500190565b6000828210156153915761539161543c565b500390565b6000613eec3684846143dc565b60005b838110156153be5781810151838201526020016153a6565b838111156119455750506000910152565b6000816153de576153de61543c565b506000190190565b600181811c908216806153fa57607f821691505b6020821081141561541b57634e487b7160e01b600052602260045260246000fd5b50919050565b60006000198214156154355761543561543c565b5060010190565b634e487b7160e01b600052601160045260246000fd5b634e487b7160e01b600052603260045260246000fd5b634e487b7160e01b600052604160045260246000fd5b6001600160e01b03198116811461149a57600080fdfea26469706673582212209036d643032d2ca6f09b6eb6a90f0a2ec5bb93e5aefa8d752906e435fc43f20d64736f6c63430008070033",
  "linkReferences": {},
  "deployedLinkReferences": {}
}